{
  "contractName": "Lottery",
  "abi": [
    {
      "constant": false,
      "inputs": [
        {
          "name": "addr",
          "type": "address"
        }
      ],
      "name": "newowner",
      "outputs": [],
      "payable": false,
      "stateMutability": "nonpayable",
      "type": "function"
    },
    {
      "constant": false,
      "inputs": [],
      "name": "unpause",
      "outputs": [],
      "payable": false,
      "stateMutability": "nonpayable",
      "type": "function"
    },
    {
      "constant": true,
      "inputs": [],
      "name": "paused",
      "outputs": [
        {
          "name": "",
          "type": "bool"
        }
      ],
      "payable": false,
      "stateMutability": "view",
      "type": "function"
    },
    {
      "constant": false,
      "inputs": [],
      "name": "pause",
      "outputs": [],
      "payable": false,
      "stateMutability": "nonpayable",
      "type": "function"
    },
    {
      "constant": true,
      "inputs": [],
      "name": "owner",
      "outputs": [
        {
          "name": "",
          "type": "address"
        }
      ],
      "payable": false,
      "stateMutability": "view",
      "type": "function"
    },
    {
      "constant": true,
      "inputs": [
        {
          "name": "",
          "type": "uint256"
        }
      ],
      "name": "players",
      "outputs": [
        {
          "name": "",
          "type": "address"
        }
      ],
      "payable": false,
      "stateMutability": "view",
      "type": "function"
    },
    {
      "anonymous": false,
      "inputs": [],
      "name": "Pause",
      "type": "event"
    },
    {
      "anonymous": false,
      "inputs": [],
      "name": "Unpause",
      "type": "event"
    },
    {
      "constant": false,
      "inputs": [],
      "name": "enter",
      "outputs": [],
      "payable": true,
      "stateMutability": "payable",
      "type": "function"
    },
    {
      "constant": true,
      "inputs": [],
      "name": "random",
      "outputs": [
        {
          "name": "",
          "type": "uint256"
        }
      ],
      "payable": false,
      "stateMutability": "view",
      "type": "function"
    },
    {
      "constant": false,
      "inputs": [],
      "name": "pickWinner",
      "outputs": [],
      "payable": false,
      "stateMutability": "nonpayable",
      "type": "function"
    },
    {
      "constant": true,
      "inputs": [],
      "name": "getPlayers",
      "outputs": [
        {
          "name": "",
          "type": "address[]"
        }
      ],
      "payable": false,
      "stateMutability": "view",
      "type": "function"
    }
  ],
  "bytecode": "0x608060405260008060146101000a81548160ff021916908315150217905550336000806101000a81548173ffffffffffffffffffffffffffffffffffffffff021916908373ffffffffffffffffffffffffffffffffffffffff160217905550610a7b8061006d6000396000f3006080604052600436106100a4576000357c0100000000000000000000000000000000000000000000000000000000900463ffffffff16806329b3d413146100a95780633f4ba83a146100ec5780635c975abb146101035780635d495aea146101325780635ec01e4d146101495780638456cb59146101745780638b5b9ccc1461018b5780638da5cb5b146101f7578063e97dcb621461024e578063f71d96cb14610258575b600080fd5b3480156100b557600080fd5b506100ea600480360381019080803573ffffffffffffffffffffffffffffffffffffffff1690602001909291905050506102c5565b005b3480156100f857600080fd5b5061010161035e565b005b34801561010f57600080fd5b50610118610417565b604051808215151515815260200191505060405180910390f35b34801561013e57600080fd5b5061014761042a565b005b34801561015557600080fd5b5061015e610599565b6040518082815260200191505060405180910390f35b34801561018057600080fd5b506101896106b8565b005b34801561019757600080fd5b506101a0610773565b6040518080602001828103825283818151815260200191508051906020019060200280838360005b838110156101e35780820151818401526020810190506101c8565b505050509050019250505060405180910390f35b34801561020357600080fd5b5061020c61081d565b604051808273ffffffffffffffffffffffffffffffffffffffff1673ffffffffffffffffffffffffffffffffffffffff16815260200191505060405180910390f35b610256610842565b005b34801561026457600080fd5b5061028360048036038101908080359060200190929190505050610944565b604051808273ffffffffffffffffffffffffffffffffffffffff1673ffffffffffffffffffffffffffffffffffffffff16815260200191505060405180910390f35b6000809054906101000a900473ffffffffffffffffffffffffffffffffffffffff1673ffffffffffffffffffffffffffffffffffffffff163373ffffffffffffffffffffffffffffffffffffffff16141561035b57806000806101000a81548173ffffffffffffffffffffffffffffffffffffffff021916908373ffffffffffffffffffffffffffffffffffffffff1602179055505b50565b6000809054906101000a900473ffffffffffffffffffffffffffffffffffffffff1673ffffffffffffffffffffffffffffffffffffffff163373ffffffffffffffffffffffffffffffffffffffff16141561041557600060149054906101000a900460ff1615156103ce57600080fd5b60008060146101000a81548160ff0219169083151502179055507f7805862f689e2f13df9f062ff482ad3ad112aca9e0847911ed832e158c525b3360405160405180910390a15b565b600060149054906101000a900460ff1681565b60008060009054906101000a900473ffffffffffffffffffffffffffffffffffffffff1673ffffffffffffffffffffffffffffffffffffffff163373ffffffffffffffffffffffffffffffffffffffff16141561059657600060149054906101000a900460ff1615151561049d57600080fd5b6001805490506104ab610599565b8115156104b457fe5b0690506001818154811015156104c657fe5b9060005260206000200160009054906101000a900473ffffffffffffffffffffffffffffffffffffffff1673ffffffffffffffffffffffffffffffffffffffff166108fc3073ffffffffffffffffffffffffffffffffffffffff16319081150290604051600060405180830381858888f1935050505015801561054d573d6000803e3d6000fd5b50600060405190808252806020026020018201604052801561057e5781602001602082028038833980820191505090505b5060019080519060200190610594929190610982565b505b50565b600080600060149054906101000a900460ff161515156105b857600080fd5b4442600160405160200180848152602001838152602001828054801561063357602002820191906000526020600020905b8160009054906101000a900473ffffffffffffffffffffffffffffffffffffffff1673ffffffffffffffffffffffffffffffffffffffff16815260200190600101908083116105e9575b505093505050506040516020818303038152906040526040518082805190602001908083835b60208310151561067e5780518252602082019150602081019050602083039250610659565b6001836020036101000a03801982511681845116808217855250505050505090500191505060405180910390209050806001900491505090565b6000809054906101000a900473ffffffffffffffffffffffffffffffffffffffff1673ffffffffffffffffffffffffffffffffffffffff163373ffffffffffffffffffffffffffffffffffffffff16141561077157600060149054906101000a900460ff1615151561072957600080fd5b6001600060146101000a81548160ff0219169083151502179055507f6985a02210a168e66602d3235cb6db0e70f92b3ba4d376a33c0f3d9434bff62560405160405180910390a15b565b6060600060149054906101000a900460ff1615151561079157600080fd5b600180548060200260200160405190810160405280929190818152602001828054801561081357602002820191906000526020600020905b8160009054906101000a900473ffffffffffffffffffffffffffffffffffffffff1673ffffffffffffffffffffffffffffffffffffffff16815260200190600101908083116107c9575b5050505050905090565b6000809054906101000a900473ffffffffffffffffffffffffffffffffffffffff1681565b600060149054906101000a900460ff1615151561085e57600080fd5b662386f26fc10000341115156108dc576040517f08c379a000000000000000000000000000000000000000000000000000000000815260040180806020018281038252601f8152602001807f706c6561736520456e7465722076616c7565203e3d202e30312045746865720081525060200191505060405180910390fd5b60013390806001815401808255809150509060018203906000526020600020016000909192909190916101000a81548173ffffffffffffffffffffffffffffffffffffffff021916908373ffffffffffffffffffffffffffffffffffffffff16021790555050565b60018181548110151561095357fe5b906000526020600020016000915054906101000a900473ffffffffffffffffffffffffffffffffffffffff1681565b8280548282559060005260206000209081019282156109fb579160200282015b828111156109fa5782518260006101000a81548173ffffffffffffffffffffffffffffffffffffffff021916908373ffffffffffffffffffffffffffffffffffffffff160217905550916020019190600101906109a2565b5b509050610a089190610a0c565b5090565b610a4c91905b80821115610a4857600081816101000a81549073ffffffffffffffffffffffffffffffffffffffff021916905550600101610a12565b5090565b905600a165627a7a7230582094ad6acf31e00343131862fd56e06617efb1b995fb9780109afa80373c7f1f330029",
  "source": "pragma solidity ^0.4.17;\nimport \"./Pauseable.sol\";\n\ncontract Lottery is Pausable {\n    \n    address[] public players;\n    \n    \n    function enter() public payable whenNotPaused {\n        require(msg.value > .01 ether, \"please Enter value >= .01 Ether\");\n\n        players.push(msg.sender);\n    }\n\n    function random() public view whenNotPaused returns (uint) {\n        bytes32 output = keccak256(abi.encodePacked(block.difficulty, now, players));\n        return uint(output);\n    }\n\n    function pickWinner() public onlyowner whenNotPaused {\n        uint index = random() % players.length;\n        players[index].transfer(address(this).balance);\n        players = new address[](0);\n    }\n\n    \n\n    function getPlayers() public view whenNotPaused returns (address[]) {\n        return players;\n    }\n\n}",
  "sourcePath": "/home/mohamed/Desktop/ppp/contracts/Lottery.sol",
  "compiler": {
    "name": "solc",
    "version": "0.4.24+commit.e67f0147.Emscripten.clang"
  },
  "schemaVersion": "2.0.1",
  "updatedAt": "2018-08-24T11:28:47.110Z"
}